{
  "contractName": "Token",
  "abi": [
    {
      "anonymous": false,
      "inputs": [
        {
          "indexed": true,
          "internalType": "address",
          "name": "owner",
          "type": "address"
        },
        {
          "indexed": true,
          "internalType": "address",
          "name": "spender",
          "type": "address"
        },
        {
          "indexed": false,
          "internalType": "uint256",
          "name": "amount",
          "type": "uint256"
        }
      ],
      "name": "Approval",
      "type": "event"
    },
    {
      "anonymous": false,
      "inputs": [
        {
          "indexed": true,
          "internalType": "address",
          "name": "from",
          "type": "address"
        },
        {
          "indexed": true,
          "internalType": "address",
          "name": "to",
          "type": "address"
        },
        {
          "indexed": false,
          "internalType": "uint256",
          "name": "amount",
          "type": "uint256"
        }
      ],
      "name": "Transfer",
      "type": "event"
    },
    {
      "inputs": [
        {
          "internalType": "address",
          "name": "",
          "type": "address"
        },
        {
          "internalType": "address",
          "name": "",
          "type": "address"
        }
      ],
      "name": "allowance",
      "outputs": [
        {
          "internalType": "uint256",
          "name": "",
          "type": "uint256"
        }
      ],
      "stateMutability": "view",
      "type": "function",
      "constant": true
    },
    {
      "inputs": [
        {
          "internalType": "address",
          "name": "",
          "type": "address"
        }
      ],
      "name": "balanceOf",
      "outputs": [
        {
          "internalType": "uint256",
          "name": "",
          "type": "uint256"
        }
      ],
      "stateMutability": "view",
      "type": "function",
      "constant": true
    },
    {
      "inputs": [],
      "name": "decimals",
      "outputs": [
        {
          "internalType": "uint8",
          "name": "",
          "type": "uint8"
        }
      ],
      "stateMutability": "view",
      "type": "function",
      "constant": true
    },
    {
      "inputs": [],
      "name": "name",
      "outputs": [
        {
          "internalType": "string",
          "name": "",
          "type": "string"
        }
      ],
      "stateMutability": "view",
      "type": "function",
      "constant": true
    },
    {
      "inputs": [],
      "name": "symbol",
      "outputs": [
        {
          "internalType": "string",
          "name": "",
          "type": "string"
        }
      ],
      "stateMutability": "view",
      "type": "function",
      "constant": true
    },
    {
      "inputs": [],
      "name": "totalSupply",
      "outputs": [
        {
          "internalType": "uint256",
          "name": "",
          "type": "uint256"
        }
      ],
      "stateMutability": "view",
      "type": "function",
      "constant": true
    },
    {
      "inputs": [
        {
          "internalType": "address",
          "name": "recipient",
          "type": "address"
        },
        {
          "internalType": "uint256",
          "name": "amount",
          "type": "uint256"
        }
      ],
      "name": "transfer",
      "outputs": [
        {
          "internalType": "bool",
          "name": "",
          "type": "bool"
        }
      ],
      "stateMutability": "nonpayable",
      "type": "function"
    },
    {
      "inputs": [
        {
          "internalType": "address",
          "name": "spender",
          "type": "address"
        },
        {
          "internalType": "uint256",
          "name": "amount",
          "type": "uint256"
        }
      ],
      "name": "approve",
      "outputs": [
        {
          "internalType": "bool",
          "name": "",
          "type": "bool"
        }
      ],
      "stateMutability": "nonpayable",
      "type": "function"
    },
    {
      "inputs": [
        {
          "internalType": "address",
          "name": "sender",
          "type": "address"
        },
        {
          "internalType": "address",
          "name": "recipient",
          "type": "address"
        },
        {
          "internalType": "uint256",
          "name": "amount",
          "type": "uint256"
        }
      ],
      "name": "transferFrom",
      "outputs": [
        {
          "internalType": "bool",
          "name": "",
          "type": "bool"
        }
      ],
      "stateMutability": "nonpayable",
      "type": "function"
    },
    {
      "inputs": [
        {
          "internalType": "uint256",
          "name": "amount",
          "type": "uint256"
        }
      ],
      "name": "mint",
      "outputs": [],
      "stateMutability": "nonpayable",
      "type": "function"
    },
    {
      "inputs": [
        {
          "internalType": "uint256",
          "name": "amount",
          "type": "uint256"
        }
      ],
      "name": "burn",
      "outputs": [],
      "stateMutability": "nonpayable",
      "type": "function"
    }
  ],
  "bytecode": "0x60806040526040518060400160405280600681526020017f64654e6f616800000000000000000000000000000000000000000000000000008152506003908051906020019062000051929190620000d0565b506040518060400160405280600481526020017f444e4f4100000000000000000000000000000000000000000000000000000000815250600490805190602001906200009f929190620000d0565b506012600560006101000a81548160ff021916908360ff160217905550348015620000c957600080fd5b50620001e5565b828054620000de90620001af565b90600052602060002090601f0160209004810192826200010257600085556200014e565b82601f106200011d57805160ff19168380011785556200014e565b828001600101855582156200014e579182015b828111156200014d57825182559160200191906001019062000130565b5b5090506200015d919062000161565b5090565b5b808211156200017c57600081600090555060010162000162565b5090565b7f4e487b7100000000000000000000000000000000000000000000000000000000600052602260045260246000fd5b60006002820490506001821680620001c857607f821691505b60208210811415620001df57620001de62000180565b5b50919050565b610d9680620001f56000396000f3fe608060405234801561001057600080fd5b50600436106100a95760003560e01c806342966c681161007157806342966c681461016857806370a082311461018457806395d89b41146101b4578063a0712d68146101d2578063a9059cbb146101ee578063dd62ed3e1461021e576100a9565b806306fdde03146100ae578063095ea7b3146100cc57806318160ddd146100fc57806323b872dd1461011a578063313ce5671461014a575b600080fd5b6100b661024e565b6040516100c391906109c7565b60405180910390f35b6100e660048036038101906100e19190610a82565b6102dc565b6040516100f39190610add565b60405180910390f35b6101046103ce565b6040516101119190610b07565b60405180910390f35b610134600480360381019061012f9190610b22565b6103d4565b6040516101419190610add565b60405180910390f35b610152610585565b60405161015f9190610b91565b60405180910390f35b610182600480360381019061017d9190610bac565b610598565b005b61019e60048036038101906101999190610bd9565b61066f565b6040516101ab9190610b07565b60405180910390f35b6101bc610687565b6040516101c991906109c7565b60405180910390f35b6101ec60048036038101906101e79190610bac565b610715565b005b61020860048036038101906102039190610a82565b6107ec565b6040516102159190610add565b60405180910390f35b61023860048036038101906102339190610c06565b610909565b6040516102459190610b07565b60405180910390f35b6003805461025b90610c75565b80601f016020809104026020016040519081016040528092919081815260200182805461028790610c75565b80156102d45780601f106102a9576101008083540402835291602001916102d4565b820191906000526020600020905b8154815290600101906020018083116102b757829003601f168201915b505050505081565b600081600260003373ffffffffffffffffffffffffffffffffffffffff1673ffffffffffffffffffffffffffffffffffffffff16815260200190815260200160002060008573ffffffffffffffffffffffffffffffffffffffff1673ffffffffffffffffffffffffffffffffffffffff168152602001908152602001600020819055508273ffffffffffffffffffffffffffffffffffffffff163373ffffffffffffffffffffffffffffffffffffffff167f8c5be1e5ebec7d5bd14f71427d1e84f3dd0314c0f7b2291e5b200ac8c7c3b925846040516103bc9190610b07565b60405180910390a36001905092915050565b60005481565b600081600260008673ffffffffffffffffffffffffffffffffffffffff1673ffffffffffffffffffffffffffffffffffffffff16815260200190815260200160002060003373ffffffffffffffffffffffffffffffffffffffff1673ffffffffffffffffffffffffffffffffffffffff16815260200190815260200160002060008282546104629190610cd6565b9250508190555081600160008673ffffffffffffffffffffffffffffffffffffffff1673ffffffffffffffffffffffffffffffffffffffff16815260200190815260200160002060008282546104b89190610cd6565b9250508190555081600160008573ffffffffffffffffffffffffffffffffffffffff1673ffffffffffffffffffffffffffffffffffffffff168152602001908152602001600020600082825461050e9190610d0a565b925050819055508273ffffffffffffffffffffffffffffffffffffffff168473ffffffffffffffffffffffffffffffffffffffff167fddf252ad1be2c89b69c2b068fc378daa952ba7f163c4a11628f55a4df523b3ef846040516105729190610b07565b60405180910390a3600190509392505050565b600560009054906101000a900460ff1681565b80600160003373ffffffffffffffffffffffffffffffffffffffff1673ffffffffffffffffffffffffffffffffffffffff16815260200190815260200160002060008282546105e79190610cd6565b92505081905550806000808282546105ff9190610cd6565b92505081905550600073ffffffffffffffffffffffffffffffffffffffff163373ffffffffffffffffffffffffffffffffffffffff167fddf252ad1be2c89b69c2b068fc378daa952ba7f163c4a11628f55a4df523b3ef836040516106649190610b07565b60405180910390a350565b60016020528060005260406000206000915090505481565b6004805461069490610c75565b80601f01602080910402602001604051908101604052809291908181526020018280546106c090610c75565b801561070d5780601f106106e25761010080835404028352916020019161070d565b820191906000526020600020905b8154815290600101906020018083116106f057829003601f168201915b505050505081565b80600160003373ffffffffffffffffffffffffffffffffffffffff1673ffffffffffffffffffffffffffffffffffffffff16815260200190815260200160002060008282546107649190610d0a565b925050819055508060008082825461077c9190610d0a565b925050819055503373ffffffffffffffffffffffffffffffffffffffff16600073ffffffffffffffffffffffffffffffffffffffff167fddf252ad1be2c89b69c2b068fc378daa952ba7f163c4a11628f55a4df523b3ef836040516107e19190610b07565b60405180910390a350565b600081600160003373ffffffffffffffffffffffffffffffffffffffff1673ffffffffffffffffffffffffffffffffffffffff168152602001908152602001600020600082825461083d9190610cd6565b9250508190555081600160008573ffffffffffffffffffffffffffffffffffffffff1673ffffffffffffffffffffffffffffffffffffffff16815260200190815260200160002060008282546108939190610d0a565b925050819055508273ffffffffffffffffffffffffffffffffffffffff163373ffffffffffffffffffffffffffffffffffffffff167fddf252ad1be2c89b69c2b068fc378daa952ba7f163c4a11628f55a4df523b3ef846040516108f79190610b07565b60405180910390a36001905092915050565b6002602052816000526040600020602052806000526040600020600091509150505481565b600081519050919050565b600082825260208201905092915050565b60005b8381101561096857808201518184015260208101905061094d565b83811115610977576000848401525b50505050565b6000601f19601f8301169050919050565b60006109998261092e565b6109a38185610939565b93506109b381856020860161094a565b6109bc8161097d565b840191505092915050565b600060208201905081810360008301526109e1818461098e565b905092915050565b600080fd5b600073ffffffffffffffffffffffffffffffffffffffff82169050919050565b6000610a19826109ee565b9050919050565b610a2981610a0e565b8114610a3457600080fd5b50565b600081359050610a4681610a20565b92915050565b6000819050919050565b610a5f81610a4c565b8114610a6a57600080fd5b50565b600081359050610a7c81610a56565b92915050565b60008060408385031215610a9957610a986109e9565b5b6000610aa785828601610a37565b9250506020610ab885828601610a6d565b9150509250929050565b60008115159050919050565b610ad781610ac2565b82525050565b6000602082019050610af26000830184610ace565b92915050565b610b0181610a4c565b82525050565b6000602082019050610b1c6000830184610af8565b92915050565b600080600060608486031215610b3b57610b3a6109e9565b5b6000610b4986828701610a37565b9350506020610b5a86828701610a37565b9250506040610b6b86828701610a6d565b9150509250925092565b600060ff82169050919050565b610b8b81610b75565b82525050565b6000602082019050610ba66000830184610b82565b92915050565b600060208284031215610bc257610bc16109e9565b5b6000610bd084828501610a6d565b91505092915050565b600060208284031215610bef57610bee6109e9565b5b6000610bfd84828501610a37565b91505092915050565b60008060408385031215610c1d57610c1c6109e9565b5b6000610c2b85828601610a37565b9250506020610c3c85828601610a37565b9150509250929050565b7f4e487b7100000000000000000000000000000000000000000000000000000000600052602260045260246000fd5b60006002820490506001821680610c8d57607f821691505b60208210811415610ca157610ca0610c46565b5b50919050565b7f4e487b7100000000000000000000000000000000000000000000000000000000600052601160045260246000fd5b6000610ce182610a4c565b9150610cec83610a4c565b925082821015610cff57610cfe610ca7565b5b828203905092915050565b6000610d1582610a4c565b9150610d2083610a4c565b9250827fffffffffffffffffffffffffffffffffffffffffffffffffffffffffffffffff03821115610d5557610d54610ca7565b5b82820190509291505056fea26469706673582212202301f33eafbd4ae3c4fc2cbeb6176424beb204d7216618a230a48f6b3366098264736f6c634300080a0033",
  "immutableReferences": {},
  "source": "// SPDX-License-Identifier: MIT\r\npragma solidity ^0.8.10;\r\n\r\ninterface IERC20 {\r\n  function totalSupply() external view returns (uint);\r\n  function balanceOf(address account) external view returns (uint);\r\n  function transfer(address recipient, uint amount) external returns (bool);\r\n\r\n  function allowance(address owner, address spender)\r\n  external view returns (uint);\r\n  \r\n  function approve(address spender, uint amount) external returns (bool);\r\n\r\n  function transferFrom(\r\n    address sender,\r\n    address recipient,\r\n    uint amount\r\n  ) external returns (bool);\r\n\r\n  event Transfer(address indexed from, address indexed to, uint amount);\r\n  event Approval(address indexed owner, address indexed spender, uint amount);\r\n}\r\n\r\ncontract Token is IERC20 {\r\n  uint public totalSupply;\r\n  mapping (address => uint) public balanceOf;\r\n  mapping(address => mapping(address => uint)) public allowance;\r\n\r\n  string public name = 'deNoah';\r\n  string public symbol = 'DNOA';\r\n  uint8 public decimals = 18;\r\n\r\n  function transfer(address recipient, uint amount) external returns (bool) {\r\n    balanceOf[msg.sender] -= amount;\r\n    balanceOf[recipient] += amount;\r\n    emit Transfer(msg.sender, recipient, amount);\r\n    return true;\r\n  }\r\n\r\n function approve(address spender, uint amount) external returns (bool) {\r\n   allowance[msg.sender][spender] = amount;\r\n   emit Approval(msg.sender, spender, amount);\r\n   return true;\r\n }\r\n\r\n\r\n  function transferFrom(\r\n    address sender,\r\n    address recipient,\r\n    uint amount\r\n  ) external returns (bool) {\r\n    allowance [sender][msg.sender] -= amount;\r\n    balanceOf[sender] -= amount;\r\n    balanceOf[recipient] += amount;\r\n    emit Transfer(sender, recipient, amount);\r\n    return true;\r\n  }\r\n\r\n  function mint(uint amount) external {\r\n    balanceOf [msg.sender] += amount;\r\n    totalSupply += amount;\r\n    emit Transfer(address(0), msg.sender, amount);\r\n  }\r\n\r\n  function burn (uint amount) external {\r\n    balanceOf [msg.sender] -= amount;\r\n    totalSupply -= amount;\r\n    emit Transfer(msg.sender, address(0), amount);\r\n  }\r\n}\r\n\r\n",
  "sourcePath": "R:\\IffCode\\Solidity\\Truffle\\contracts\\Token.sol",
  "compiler": {
    "name": "solc",
    "version": "0.8.10+commit.fc410830.Emscripten.clang"
  },
  "schemaVersion": "3.4.4",
  "updatedAt": "2022-02-20T09:28:50.306Z",
  "networkType": "ethereum",
  "devdoc": {
    "kind": "dev",
    "methods": {},
    "version": 1
  },
  "userdoc": {
    "kind": "user",
    "methods": {},
    "version": 1
  }
}